:100000000C9446000C945D000C945D000C945D0013
:100010000C945D000C945D000C945D000C945D00EC
:100020000C945D000C945D000C945D000C945D00DC
:100030000C945D000C945D000C945D000C945D00CC
:100040000C945D000C945D000C945D000C945D00BC
:100050000C945D000C945D000C945D000C945D00AC
:100060000C945D000C945D000C945D000C945D009C
:100070000C945D000C945D000C945D000C945D008C
:100080000C945D000C945D000C945D0011241FBE67
:10009000CFEFD0E1DEBFCDBF11E0A0E0B1E0EEEFE9
:1000A000F1E000E00BBF02C007900D92A031B10754
:1000B000D9F70E94BA000C94FD000C94000018BA05
:1000C0008FEF87BBE5E6F0E080811082E4E6F0E0A8
:1000D0008081886180830895DB01E5E6F0E020817E
:1000E000206120832081277F2083A050BF4F2C9147
:1000F00028BB20812860208320812F7E208327E059
:1001000030E0281B390B81E090E002C0880F991F76
:100110002A95E2F788BB8081877F808380818F7EEC
:10012000808380ED97E00197F1F7089508950F938C
:100130001F93CF93DF938C01C0E0D0E0C8016AE049
:1001400070E00E94D600BC01CE010E946C00C80184
:100150006AE070E00E94D6006115710531F02196C9
:10016000062F172FC730D10549F7DF91CF911F9187
:100170000F9108950F931F93CF93DF9318BA8FEFCA
:1001800087BB809165001092650080916400886152
:1001900080936400C0E0D0E000ED17E0CE010E9443
:1001A0009700C8010197F1F72196F8CF97FB092E28
:1001B00007260AD077FD04D00CD006D000201AF410
:1001C000709561957F4F0895F6F7909581959F4FB3
:1001D0000895AA1BBB1B51E107C0AA1FBB1FA6178E
:1001E000B70710F0A61BB70B881F991F5A95A9F7E0
:0E01F00080959095BC01CD010895F894FFCF45
:1001FE00C0F9A4B0999282F880908883C6A1868EA9
:00000001FF
